{
  "address": "0xd74797C50bdBA015eCF6E55ca5869e8cb9F0Cdb2",
  "abi": [
    {
      "inputs": [
        {
          "internalType": "address",
          "name": "_admin",
          "type": "address"
        }
      ],
      "stateMutability": "nonpayable",
      "type": "constructor"
    },
    {
      "inputs": [],
      "name": "AccessControlBadConfirmation",
      "type": "error"
    },
    {
      "inputs": [
        {
          "internalType": "address",
          "name": "account",
          "type": "address"
        },
        {
          "internalType": "bytes32",
          "name": "neededRole",
          "type": "bytes32"
        }
      ],
      "name": "AccessControlUnauthorizedAccount",
      "type": "error"
    },
    {
      "inputs": [],
      "name": "ReentrancyGuardReentrantCall",
      "type": "error"
    },
    {
      "anonymous": false,
      "inputs": [
        {
          "indexed": true,
          "internalType": "bytes32",
          "name": "key",
          "type": "bytes32"
        },
        {
          "indexed": false,
          "internalType": "address",
          "name": "from",
          "type": "address"
        }
      ],
      "name": "Deposit",
      "type": "event"
    },
    {
      "anonymous": false,
      "inputs": [
        {
          "indexed": false,
          "internalType": "uint256",
          "name": "amount",
          "type": "uint256"
        }
      ],
      "name": "PoolChanged",
      "type": "event"
    },
    {
      "anonymous": false,
      "inputs": [
        {
          "indexed": true,
          "internalType": "bytes32",
          "name": "role",
          "type": "bytes32"
        },
        {
          "indexed": true,
          "internalType": "bytes32",
          "name": "previousAdminRole",
          "type": "bytes32"
        },
        {
          "indexed": true,
          "internalType": "bytes32",
          "name": "newAdminRole",
          "type": "bytes32"
        }
      ],
      "name": "RoleAdminChanged",
      "type": "event"
    },
    {
      "anonymous": false,
      "inputs": [
        {
          "indexed": true,
          "internalType": "bytes32",
          "name": "role",
          "type": "bytes32"
        },
        {
          "indexed": true,
          "internalType": "address",
          "name": "account",
          "type": "address"
        },
        {
          "indexed": true,
          "internalType": "address",
          "name": "sender",
          "type": "address"
        }
      ],
      "name": "RoleGranted",
      "type": "event"
    },
    {
      "anonymous": false,
      "inputs": [
        {
          "indexed": true,
          "internalType": "bytes32",
          "name": "role",
          "type": "bytes32"
        },
        {
          "indexed": true,
          "internalType": "address",
          "name": "account",
          "type": "address"
        },
        {
          "indexed": true,
          "internalType": "address",
          "name": "sender",
          "type": "address"
        }
      ],
      "name": "RoleRevoked",
      "type": "event"
    },
    {
      "anonymous": false,
      "inputs": [
        {
          "indexed": true,
          "internalType": "bytes32",
          "name": "key",
          "type": "bytes32"
        },
        {
          "indexed": false,
          "internalType": "address",
          "name": "to",
          "type": "address"
        }
      ],
      "name": "Withdraw",
      "type": "event"
    },
    {
      "stateMutability": "payable",
      "type": "fallback"
    },
    {
      "inputs": [],
      "name": "ADMIN_ROLE",
      "outputs": [
        {
          "internalType": "bytes32",
          "name": "",
          "type": "bytes32"
        }
      ],
      "stateMutability": "view",
      "type": "function"
    },
    {
      "inputs": [],
      "name": "DEFAULT_ADMIN_ROLE",
      "outputs": [
        {
          "internalType": "bytes32",
          "name": "",
          "type": "bytes32"
        }
      ],
      "stateMutability": "view",
      "type": "function"
    },
    {
      "inputs": [],
      "name": "KEEPER_ROLE",
      "outputs": [
        {
          "internalType": "bytes32",
          "name": "",
          "type": "bytes32"
        }
      ],
      "stateMutability": "view",
      "type": "function"
    },
    {
      "inputs": [],
      "name": "chainId",
      "outputs": [
        {
          "internalType": "uint256",
          "name": "",
          "type": "uint256"
        }
      ],
      "stateMutability": "view",
      "type": "function"
    },
    {
      "inputs": [
        {
          "internalType": "bytes32",
          "name": "_key",
          "type": "bytes32"
        },
        {
          "components": [
            {
              "internalType": "bytes32",
              "name": "r",
              "type": "bytes32"
            },
            {
              "internalType": "bytes32",
              "name": "s",
              "type": "bytes32"
            },
            {
              "internalType": "uint8",
              "name": "v",
              "type": "uint8"
            }
          ],
          "internalType": "struct Sig",
          "name": "_sig",
          "type": "tuple"
        }
      ],
      "name": "deposit",
      "outputs": [],
      "stateMutability": "payable",
      "type": "function"
    },
    {
      "inputs": [
        {
          "internalType": "bytes32",
          "name": "role",
          "type": "bytes32"
        }
      ],
      "name": "getRoleAdmin",
      "outputs": [
        {
          "internalType": "bytes32",
          "name": "",
          "type": "bytes32"
        }
      ],
      "stateMutability": "view",
      "type": "function"
    },
    {
      "inputs": [
        {
          "internalType": "bytes32",
          "name": "role",
          "type": "bytes32"
        },
        {
          "internalType": "address",
          "name": "account",
          "type": "address"
        }
      ],
      "name": "grantRole",
      "outputs": [],
      "stateMutability": "nonpayable",
      "type": "function"
    },
    {
      "inputs": [
        {
          "internalType": "bytes32",
          "name": "role",
          "type": "bytes32"
        },
        {
          "internalType": "address",
          "name": "account",
          "type": "address"
        }
      ],
      "name": "hasRole",
      "outputs": [
        {
          "internalType": "bool",
          "name": "",
          "type": "bool"
        }
      ],
      "stateMutability": "view",
      "type": "function"
    },
    {
      "inputs": [
        {
          "internalType": "bytes32",
          "name": "role",
          "type": "bytes32"
        },
        {
          "internalType": "address",
          "name": "callerConfirmation",
          "type": "address"
        }
      ],
      "name": "renounceRole",
      "outputs": [],
      "stateMutability": "nonpayable",
      "type": "function"
    },
    {
      "inputs": [
        {
          "internalType": "bytes32",
          "name": "role",
          "type": "bytes32"
        },
        {
          "internalType": "address",
          "name": "account",
          "type": "address"
        }
      ],
      "name": "revokeRole",
      "outputs": [],
      "stateMutability": "nonpayable",
      "type": "function"
    },
    {
      "inputs": [
        {
          "internalType": "bytes4",
          "name": "interfaceId",
          "type": "bytes4"
        }
      ],
      "name": "supportsInterface",
      "outputs": [
        {
          "internalType": "bool",
          "name": "",
          "type": "bool"
        }
      ],
      "stateMutability": "view",
      "type": "function"
    },
    {
      "inputs": [
        {
          "internalType": "bytes32",
          "name": "_key",
          "type": "bytes32"
        },
        {
          "internalType": "address",
          "name": "_to",
          "type": "address"
        },
        {
          "internalType": "uint256",
          "name": "_amount",
          "type": "uint256"
        }
      ],
      "name": "withdraw",
      "outputs": [],
      "stateMutability": "nonpayable",
      "type": "function"
    },
    {
      "inputs": [
        {
          "internalType": "address",
          "name": "_to",
          "type": "address"
        },
        {
          "internalType": "uint256",
          "name": "_amount",
          "type": "uint256"
        }
      ],
      "name": "withdrawPool",
      "outputs": [],
      "stateMutability": "nonpayable",
      "type": "function"
    },
    {
      "stateMutability": "payable",
      "type": "receive"
    }
  ],
  "transactionHash": "0x0517f6440d175700e070cc9b01454c7949ee46184123c09078120a1bb0ba71df",
  "args": [
    "0xf5CA36c9873d61Bc28C117BD470981Ef6647A685"
  ],
  "numDeployments": 1,
  "solcInputHash": "c21313fb4cf43b7703eede1b3c2d5231",
  "bytecode": "0x608060405234801561001057600080fd5b50604051610c14380380610c1483398101604081905261002f91610188565b600180554660028190556100717f4f78afe9dfc9a0cb0441c27b9405070cd2a48b490636a7bdd09f355e33a5d7de600080516020610bf4833981519152610091565b610089600080516020610bf4833981519152836100dc565b5050506101b8565b600082815260208190526040808220600101805490849055905190918391839186917fbd79b86ffe0ab8e8776151514217cd7cacd52c909f66475c3af44e129f0b00ff9190a4505050565b6000828152602081815260408083206001600160a01b038516845290915281205460ff1661017e576000838152602081815260408083206001600160a01b03861684529091529020805460ff191660011790556101363390565b6001600160a01b0316826001600160a01b0316847f2f8788117e7eff1d82e926ec794901d17c78024a50270940304540a733656f0d60405160405180910390a4506001610182565b5060005b92915050565b60006020828403121561019a57600080fd5b81516001600160a01b03811681146101b157600080fd5b9392505050565b610a2d806101c76000396000f3fe6080604052600436106100c65760003560e01c80637c4304ff1161007f578063a217fddf11610059578063a217fddf14610280578063a6fb97d114610295578063d547741f146102b5578063d6b3c789146102d5576100ef565b80637c4304ff1461022a57806391d148541461024a5780639a8a05921461026a576100ef565b806301ffc9a71461010d578063248a9ca3146101425780632f2ff15d14610180578063364bc15a146101a257806336568abe146101d657806375b238fc146101f6576100ef565b366100ef576040514781526000805160206109d8833981519152906020015b60405180910390a1005b6040514781526000805160206109d8833981519152906020016100e5565b34801561011957600080fd5b5061012d61012836600461088b565b6102e8565b60405190151581526020015b60405180910390f35b34801561014e57600080fd5b5061017261015d3660046108bc565b60009081526020819052604090206001015490565b604051908152602001610139565b34801561018c57600080fd5b506101a061019b3660046108f1565b61031f565b005b3480156101ae57600080fd5b506101727f4f78afe9dfc9a0cb0441c27b9405070cd2a48b490636a7bdd09f355e33a5d7de81565b3480156101e257600080fd5b506101a06101f13660046108f1565b61034a565b34801561020257600080fd5b506101727fa729ef4e25027bc652fc8b5c4d1d902947361fa7c8e7b4905e877823f27331b381565b34801561023657600080fd5b506101a061024536600461091d565b610382565b34801561025657600080fd5b5061012d6102653660046108f1565b6103e2565b34801561027657600080fd5b5061017260025481565b34801561028c57600080fd5b50610172600081565b3480156102a157600080fd5b506101a06102b0366004610947565b61040b565b3480156102c157600080fd5b506101a06102d03660046108f1565b6104dd565b6101a06102e336600461097c565b610502565b60006001600160e01b03198216637965db0b60e01b148061031957506301ffc9a760e01b6001600160e01b03198316145b92915050565b60008281526020819052604090206001015461033a816105c2565b61034483836105cf565b50505050565b6001600160a01b03811633146103735760405163334bd91960e11b815260040160405180910390fd5b61037d8282610661565b505050565b7fa729ef4e25027bc652fc8b5c4d1d902947361fa7c8e7b4905e877823f27331b36103ac816105c2565b6040516001600160a01b0384169083156108fc029084906000818181858888f19350505050158015610344573d6000803e3d6000fd5b6000918252602082815260408084206001600160a01b0393909316845291905290205460ff1690565b6104136106cc565b7f4f78afe9dfc9a0cb0441c27b9405070cd2a48b490636a7bdd09f355e33a5d7de61043d816105c2565b6040516001600160a01b0384169083156108fc029084906000818181858888f19350505050158015610473573d6000803e3d6000fd5b506040516001600160a01b038416815284907f0448f4c3f7e202963aee589c062ccd162bcad2d1e20f233e7092cf77dacc61df9060200160405180910390a26040514781526000805160206109d88339815191529060200160405180910390a15061037d60018055565b6000828152602081905260409020600101546104f8816105c2565b6103448383610661565b61050e338334846106f6565b61055f5760405162461bcd60e51b815260206004820181905260248201527f4e61746976654272696467653a20696e76616c696420706172616d657465727360448201526064015b60405180910390fd5b817f486242080fa32fab3d0c1b35cf4b72db37f659787c4ee1a3cebcea1f7274c843336040516001600160a01b03909116815260200160405180910390a26040514781526000805160206109d88339815191529060200160405180910390a15050565b6105cc813361084e565b50565b60006105db83836103e2565b610659576000838152602081815260408083206001600160a01b03861684529091529020805460ff191660011790556106113390565b6001600160a01b0316826001600160a01b0316847f2f8788117e7eff1d82e926ec794901d17c78024a50270940304540a733656f0d60405160405180910390a4506001610319565b506000610319565b600061066d83836103e2565b15610659576000838152602081815260408083206001600160a01b0386168085529252808320805460ff1916905551339286917ff6391f5c32d9c69d2a47ea670b442974b53935d1edc7fd64eb21e047a839171b9190a4506001610319565b6002600154036106ef57604051633ee5aeb560e01b815260040160405180910390fd5b6002600155565b6002546040516bffffffffffffffffffffffff19606087901b16602082015260348101859052605481018490526074810191909152600090819060940160405160208183030381529060405280519060200120905060008160405160200161078a91907f19457468657265756d205369676e6564204d6573736167653a0a3332000000008152601c810191909152603c0190565b60405160208183030381529060405280519060200120905060006001828660400160208101906107ba91906109b4565b604080516000815260208181018084529490945260ff909216908201528735606082015290870135608082015260a0016020604051602081039080840390855afa15801561080c573d6000803e3d6000fd5b5050506020604051035190506108427f4f78afe9dfc9a0cb0441c27b9405070cd2a48b490636a7bdd09f355e33a5d7de826103e2565b98975050505050505050565b61085882826103e2565b6108875760405163e2517d3f60e01b81526001600160a01b038216600482015260248101839052604401610556565b5050565b60006020828403121561089d57600080fd5b81356001600160e01b0319811681146108b557600080fd5b9392505050565b6000602082840312156108ce57600080fd5b5035919050565b80356001600160a01b03811681146108ec57600080fd5b919050565b6000806040838503121561090457600080fd5b82359150610914602084016108d5565b90509250929050565b6000806040838503121561093057600080fd5b610939836108d5565b946020939093013593505050565b60008060006060848603121561095c57600080fd5b8335925061096c602085016108d5565b9150604084013590509250925092565b600080828403608081121561099057600080fd5b833592506060601f19820112156109a657600080fd5b506020830190509250929050565b6000602082840312156109c657600080fd5b813560ff811681146108b557600080fdfe3b1d71e69e3b2adb64196f00f76bdd2fa274489e4075eee547697bc0851b50e2a2646970667358221220f058d23ca804d277e037f48b45800eb29df41e5dead39cf69ca9829ca2c7a77a64736f6c63430008180033a729ef4e25027bc652fc8b5c4d1d902947361fa7c8e7b4905e877823f27331b3",
  "devdoc": {
    "errors": {
      "AccessControlBadConfirmation()": [
        {
          "details": "The caller of a function is not the expected one. NOTE: Don't confuse with {AccessControlUnauthorizedAccount}."
        }
      ],
      "AccessControlUnauthorizedAccount(address,bytes32)": [
        {
          "details": "The `account` is missing a role."
        }
      ],
      "ReentrancyGuardReentrantCall()": [
        {
          "details": "Unauthorized reentrant call."
        }
      ]
    },
    "events": {
      "RoleAdminChanged(bytes32,bytes32,bytes32)": {
        "details": "Emitted when `newAdminRole` is set as ``role``'s admin role, replacing `previousAdminRole` `DEFAULT_ADMIN_ROLE` is the starting admin for all roles, despite {RoleAdminChanged} not being emitted signaling this."
      },
      "RoleGranted(bytes32,address,address)": {
        "details": "Emitted when `account` is granted `role`. `sender` is the account that originated the contract call, an admin role bearer except when using {AccessControl-_setupRole}."
      },
      "RoleRevoked(bytes32,address,address)": {
        "details": "Emitted when `account` is revoked `role`. `sender` is the account that originated the contract call:   - if using `revokeRole`, it is the admin role bearer   - if using `renounceRole`, it is the role bearer (i.e. `account`)"
      }
    },
    "kind": "dev",
    "methods": {
      "constructor": {
        "details": "initialize bridge",
        "params": {
          "_admin": "admin address of bridge"
        }
      },
      "deposit(bytes32,(bytes32,bytes32,uint8))": {
        "details": "deposit wbtc to bridge. Users call this function",
        "params": {
          "_key": "transaction key",
          "_sig": "signature of keeper"
        }
      },
      "getRoleAdmin(bytes32)": {
        "details": "Returns the admin role that controls `role`. See {grantRole} and {revokeRole}. To change a role's admin, use {_setRoleAdmin}."
      },
      "grantRole(bytes32,address)": {
        "details": "Grants `role` to `account`. If `account` had not been already granted `role`, emits a {RoleGranted} event. Requirements: - the caller must have ``role``'s admin role. May emit a {RoleGranted} event."
      },
      "hasRole(bytes32,address)": {
        "details": "Returns `true` if `account` has been granted `role`."
      },
      "renounceRole(bytes32,address)": {
        "details": "Revokes `role` from the calling account. Roles are often managed via {grantRole} and {revokeRole}: this function's purpose is to provide a mechanism for accounts to lose their privileges if they are compromised (such as when a trusted device is misplaced). If the calling account had been revoked `role`, emits a {RoleRevoked} event. Requirements: - the caller must be `callerConfirmation`. May emit a {RoleRevoked} event."
      },
      "revokeRole(bytes32,address)": {
        "details": "Revokes `role` from `account`. If `account` had been granted `role`, emits a {RoleRevoked} event. Requirements: - the caller must have ``role``'s admin role. May emit a {RoleRevoked} event."
      },
      "supportsInterface(bytes4)": {
        "details": "See {IERC165-supportsInterface}."
      },
      "withdraw(bytes32,address,uint256)": {
        "details": "send wbtc to user. Keepers call this function to send btc to users",
        "params": {
          "_amount": "wbtc amount to send",
          "_key": "transaction key",
          "_to": "address of user"
        }
      },
      "withdrawPool(address,uint256)": {
        "details": "owner can withdraw tokens of contract"
      }
    },
    "stateVariables": {
      "ADMIN_ROLE": {
        "details": "roles"
      }
    },
    "title": "BTC Bridge contract        bridges wbtc to another networks",
    "version": 1
  },
  "userdoc": {
    "kind": "user",
    "methods": {},
    "version": 1
  },
  "storageLayout": {
    "storage": [
      {
        "astId": 26,
        "contract": "contracts/NativeBridge.sol:NativeBridge",
        "label": "_roles",
        "offset": 0,
        "slot": "0",
        "type": "t_mapping(t_bytes32,t_struct(RoleData)21_storage)"
      },
      {
        "astId": 419,
        "contract": "contracts/NativeBridge.sol:NativeBridge",
        "label": "_status",
        "offset": 0,
        "slot": "1",
        "type": "t_uint256"
      },
      {
        "astId": 532,
        "contract": "contracts/NativeBridge.sol:NativeBridge",
        "label": "chainId",
        "offset": 0,
        "slot": "2",
        "type": "t_uint256"
      }
    ],
    "types": {
      "t_address": {
        "encoding": "inplace",
        "label": "address",
        "numberOfBytes": "20"
      },
      "t_bool": {
        "encoding": "inplace",
        "label": "bool",
        "numberOfBytes": "1"
      },
      "t_bytes32": {
        "encoding": "inplace",
        "label": "bytes32",
        "numberOfBytes": "32"
      },
      "t_mapping(t_address,t_bool)": {
        "encoding": "mapping",
        "key": "t_address",
        "label": "mapping(address => bool)",
        "numberOfBytes": "32",
        "value": "t_bool"
      },
      "t_mapping(t_bytes32,t_struct(RoleData)21_storage)": {
        "encoding": "mapping",
        "key": "t_bytes32",
        "label": "mapping(bytes32 => struct AccessControl.RoleData)",
        "numberOfBytes": "32",
        "value": "t_struct(RoleData)21_storage"
      },
      "t_struct(RoleData)21_storage": {
        "encoding": "inplace",
        "label": "struct AccessControl.RoleData",
        "members": [
          {
            "astId": 18,
            "contract": "contracts/NativeBridge.sol:NativeBridge",
            "label": "hasRole",
            "offset": 0,
            "slot": "0",
            "type": "t_mapping(t_address,t_bool)"
          },
          {
            "astId": 20,
            "contract": "contracts/NativeBridge.sol:NativeBridge",
            "label": "adminRole",
            "offset": 0,
            "slot": "1",
            "type": "t_bytes32"
          }
        ],
        "numberOfBytes": "64"
      },
      "t_uint256": {
        "encoding": "inplace",
        "label": "uint256",
        "numberOfBytes": "32"
      }
    }
  }
}